:100000000C943B000C9458000C9458000C9458002D
:100010000C9458000C9458000C9458000C94580000
:100020000C9458000C9458000C9458000C945800F0
:100030000C9458000C945A000C9458000C945800DE
:100040000C9458000C9458000C948B000C94B9003C
:100050000C9458000C9458000C9458000C945800C0
:100060000C9458000C9458007402760278027A02BC
:100070007C0283028A0211241FBECFEFD8E0DEBFCC
:10008000CDBF11E0A0E0B1E0EEECF6E002C00590DB
:100090000D92A031B107D9F721E0A0E1B1E001C094
:1000A0001D92A635B207E1F70E9442030C94650346
:1000B0000C9400001F920F920FB60F9211242F93F1
:1000C0003F934F935F936F937F938F939F93AF93E0
:1000D000BF93EF93FF93809110018F5F8A3018F4E4
:1000E0008093100102C01092100160E08091100115
:1000F0000E94DE02FF91EF91BF91AF919F918F918E
:100100007F916F915F914F913F912F910F900FBE13
:100110000F901F9018951F920F920FB60F921124F7
:100120002F938F939F93EF93FF938091C0009091B3
:10013000C6008C71E0911301EF5FEF712091120105
:10014000E21739F0E0931301F0E0EA5EFE4F90838E
:1001500001C082E090911101892B80931101FF91E0
:10016000EF919F918F912F910F900FBE0F901F9045
:1001700018951F920F920FB60F9211248F939F9391
:10018000EF93FF939091150180911401981769F0F6
:10019000E0911401EF5FEF71E0931401F0E0EA5C8D
:1001A000FE4F80818093C60005C08091C1008F7D85
:1001B0008093C100FF91EF919F918F910F900FBE9F
:1001C0000F901F9018951092150110921401109223
:1001D00013011092120197FF03C022E02093C00088
:1001E00090789093C5008093C40088E98093C10003
:1001F00086E08093C20008959091130180911201CE
:100200009817A9F0909112019F5F9F71E92FF0E07C
:10021000EA5EFE4F208180911101909312011092AD
:10022000110190E0982F8827820F911D089580E09A
:1002300091E00895909115019F5F9F7120911401A5
:100240009217E1F3E92FF0E0EA5CFE4F8083909390
:1002500015018091C10080628093C1000895CF9301
:10026000DF93EC018991882319F00E941A01FACFDB
:10027000DF91CF910895CF93DF93FC018491EF013B
:100280002196882321F00E941A01FE01F7CFDF9109
:10029000CF91089587B18F7C87B988B1806388B981
:1002A000E9EBF0E080818C7F808388E98093B8005F
:1002B000089594EA9093BC009091BC0097FFFCCF06
:1002C0008093BB0084E88093BC008091BC0087FFD2
:1002D000FCCF9091B900987F983119F081E090346B
:1002E00009F480E008958093BB0084E88093BC000B
:1002F0008091BC0087FFFCCF089584EC8093BC0004
:100300008091BC0087FFFCCF8091BB00089584E8FA
:100310008093BC008091BC0087FFFCCF8091BB0024
:10032000089584E98093BC000895FC01408121E098
:1003300030E001C0220F6A95EAF7242B208308954C
:10034000FC01408121E030E001C0220F6A95EAF70C
:10035000342F3223308382912095282320830895DF
:10036000FC01408121E030E001C0220F6A95EAF7EC
:10037000342F322B308382912095282320830895B7
:10038000FC01808121E030E001C0220F6A95EAF78C
:10039000413011F4282B02C0209528232083089592
:1003A000FC01408121E030E001C0220F6A95EAF7AC
:1003B000242720830895FC01208181E090E0062E0F
:1003C00002C0880F991F0A94E2F730E0822393233A
:1003D00002C0959587956A95E2F70895811131C01D
:1003E0006330F9F050F4662379F0613039F585B562
:1003F0008B7F85BD85B582600FC0653041F066306A
:10040000E9F485B5846013C085B58B7F10C085B5D0
:10041000846085BD85B58D7F85BD85B58E7F85BDA5
:10042000089585B58B7F85BD85B5826003C085BD88
:1004300085B58D7F85BD85B58160F1CF85B58B7F15
:10044000E8CF813009F044C06330D1F068F466230E
:1004500099F0613069F5809181008B7F80938100F4
:100460008091810082602CC0653099F0663001F582
:1004700080918100846011C0809181008B7F0DC0CC
:10048000809181008B7F80938100809181008260C8
:1004900009C08091810084600EC0809381008091AA
:1004A00081008D7F809381008091810081600DC0EB
:1004B000809181008B7F80938100809181008D7F6E
:1004C00080938100809181008E7F809381000895C8
:1004D000862F90E08730910548F5FC01EC5CFF4FDA
:1004E0008091B1000C945F038B7F07C08B7F0CC0A1
:1004F0008B7F11C084601DC084608093B1008091A7
:10050000B1008D7F0DC084608093B1008091B100F7
:10051000826014C084608093B1008091B1008260D9
:100520008093B1008091B10081600DC08091B100D5
:100530008B7F8093B1008091B1008D7F8093B1005B
:100540008091B1008E7F8093B100089581110CC01D
:1005500080916E00662321F0613011F4816001C04A
:100560008E7F80936E000895813061F480916F00DA
:10057000662321F0613011F4816001C08E7F809389
:100580006F00089580917000662321F0613011F4AE
:10059000816001C08E7F80937000089541E067E024
:1005A0008BE290E00E94C0018AE08A95F1F700C0DA
:1005B00040E067E08BE290E00C94C001DF92EF92A4
:1005C000FF920F931F93CF93DF93E82FF0E0EA5F42
:1005D000FE4FE080E62FF0E0EE5FFE4FD080C7E0F8
:1005E000D0E001E010E0F12CA8010C2E02C0440F75
:1005F000551F0A94E2F74E215F210C2E02C055953B
:1006000047950A94E2F760E085E290E00E94C0011D
:100610000E94CE02219740F7C7E0D0E0EE24E39499
:10062000F12C0D2D10E0A7010C2E02C0440F551F18
:100630000A94E2F7402351230C2E02C055954795AA
:100640000A94E2F760E085E290E00E94C0010E9417
:10065000CE02219740F741E064E08BE290E00E94F7
:10066000C00185E08A95F1F7000040E064E08BE28C
:1006700090E0DF91CF911F910F91FF90EF90DF906D
:100680000C94C00160E084E290E00E94950167E074
:100690008AE290E00E94950164E08AE290E00E9484
:1006A000950165E081E00E94EE0161E081E00E9439
:1006B000A602789460E089E00E94DE02FBCFEE0F94
:0E06C000FF1F0590F491E02D0994F894FFCFF0
:1006CE00010008040201C0F9A4B0989282F880904B
:00000001FF
