:100000000C9440000C945D000C945D000C945D0019
:100010000C945D000C945D000C945D000C945D00EC
:100020000C945D000C945D000C945D000C945D00DC
:100030000C945D000C945D000C945D000C945D00CC
:100040000C945D000C945D000C945F000C948D008A
:100050000C945D000C945D000C945D000C945D00AC
:100060000C945D000C945D0048024A024C024E0262
:10007000500257025E023F065B4F666D7D077F6F41
:1000800011241FBECFEFD8E0DEBFCDBF11E0A0E04E
:10009000B1E0EAEDF8E002C005900D92A031B107A1
:1000A000D9F721E0A0E1B1E001C01D92A535B2076A
:1000B000E1F70E94CF030C946B040C9400001F9294
:1000C0000F920FB60F9211242F938F939F93EF935C
:1000D000FF938091C0009091C6008C71E091120155
:1000E000EF5FEF7120911101E21739F0E0931201F7
:1000F000F0E0EB5EFE4F908301C082E09091100132
:10010000892B80931001FF91EF919F918F912F91F7
:100110000F900FBE0F901F9018951F920F920FB661
:100120000F9211248F939F93EF93FF93909114015B
:1001300080911301981769F0E0911301EF5FEF715F
:10014000E0931301F0E0EB5CFE4F80818093C600EA
:1001500005C08091C1008F7D8093C100FF91EF9118
:100160009F918F910F900FBE0F901F901895109236
:10017000140110921301109212011092110197FFB5
:1001800003C022E02093C00090789093C500809334
:10019000C40088E98093C10086E08093C20008957E
:1001A00090911201809111019817A9F0909111017D
:1001B0009F5F9F71E92FF0E0EB5EFE4F2081809101
:1001C0001001909311011092100190E0982F882750
:1001D000820F911D089580E091E00895909114019F
:1001E0009F5F9F71209113019217E1F3E92FF0E0D7
:1001F000EB5CFE4F8083909314018091C10080627C
:100200008093C1000895CF93DF93EC0189918823F7
:1002100019F00E94EE00FACFDF91CF910895CF93AD
:10022000DF93FC018491EF012196882321F00E9445
:10023000EE00FE01F7CFDF91CF91089587B18F7C5B
:1002400087B988B1806388B9E9EBF0E080818C7F61
:10025000808388E98093B800089594EA9093BC0065
:100260009091BC0097FFFCCF8093BB0084E8809303
:10027000BC008091BC0087FFFCCF9091B900987FB3
:10028000983119F081E0903409F480E0089580936A
:10029000BB0084E88093BC008091BC0087FFFCCF4A
:1002A000089584EC8093BC008091BC0087FFFCCF54
:1002B0008091BB00089584E88093BC008091BC00CD
:1002C00087FFFCCF8091BB00089584E98093BC0038
:1002D0000895FC01408121E030E001C0220F6A95C1
:1002E000EAF7242B20830895FC01408121E030E0CF
:1002F00001C0220F6A95EAF7342F322330838291AE
:100300002095282320830895FC01408121E030E0DE
:1003100001C0220F6A95EAF7342F322B3083829185
:100320002095282320830895FC01808121E030E07E
:1003300001C0220F6A95EAF7413011F4282B02C060
:100340002095282320830895FC01408121E030E09E
:1003500001C0220F6A95EAF7242720830895FC0143
:10036000208181E090E0062E02C0880F991F0A9438
:10037000E2F730E08223932302C0959587956A9532
:10038000E2F70895811131C06330F9F050F466232B
:1003900079F0613039F585B58B7F85BD85B5826093
:1003A0000FC0653041F06630E9F485B5846013C054
:1003B00085B58B7F10C085B5846085BD85B58D7F83
:1003C00085BD85B58E7F85BD089585B58B7F85BD3F
:1003D00085B5826003C085BD85B58D7F85BD85B53A
:1003E0008160F1CF85B58B7FE8CF813009F044C0C3
:1003F0006330D1F068F4662399F0613069F580913B
:1004000081008B7F809381008091810082602CC06D
:10041000653099F0663001F580918100846011C0EB
:10042000809181008B7F0DC0809181008B7F8093B4
:10043000810080918100826009C080918100846088
:100440000EC080938100809181008D7F8093810018
:100450008091810081600DC0809181008B7F8093AD
:100460008100809181008D7F809381008091810047
:100470008E7F809381000895862F90E087309105CC
:1004800048F5FC01EC5CFF4F8091B1000C946504D1
:100490008B7F07C08B7F0CC08B7F11C084601DC019
:1004A00084608093B1008091B1008D7F0DC0846025
:1004B0008093B1008091B100826014C08460809309
:1004C000B1008091B10082608093B1008091B10051
:1004D00081600DC08091B1008B7F8093B1008091CD
:1004E000B1008D7F8093B1008091B1008E7F8093A9
:1004F000B100089581110CC080916E00662321F037
:10050000613011F4816001C08E7F80936E00089588
:10051000813061F480916F00662321F0613011F425
:10052000816001C08E7F80936F000895809170007C
:10053000662321F0613011F4816001C08E7F8093C9
:100540007000089541E067E08BE290E00E94940122
:100550008AE08A95F1F700C040E067E08BE290E026
:100560000C949401DF92EF92FF920F931F93CF931D
:10057000DF93E82FF0E0EC5FFE4FE080E62FF0E045
:10058000E050FF4FD080C7E0D0E001E010E0F12C58
:10059000A8010C2E02C0440F551F0A94E2F74E2109
:1005A0005F210C2E02C0559547950A94E2F760E052
:1005B00085E290E00E9494010E94A202219740F7F8
:1005C000C7E0D0E0EE24E394F12C0D2D10E0A7015C
:1005D0000C2E02C0440F551F0A94E2F7402351230A
:1005E0000C2E02C0559547950A94E2F760E085E22B
:1005F00090E00E9494010E94A202219740F741E0FE
:1006000064E08BE290E00E94940185E08A95F1F726
:10061000000040E064E08BE290E0DF91CF911F9119
:100620000F91FF90EF90DF900C949401289A299AF3
:100630008AE18A95F1F700C02898089529988AE1FF
:100640008A95F1F700C028988AE18A95F1F700C0F1
:10065000299A8AE18A95F1F700C0289A089598E0CE
:1006600029982AE12A95F1F700C080FF02C0289A54
:1006700001C02898299A2AE12A95F1F700C08695A9
:10068000915071F729982098289A8AE18A95F1F774
:1006900000C093B181E0292F217090FF80E02130CC
:1006A00011F4209A28989AE19A95F1F700C0299AB6
:1006B0002AE12A95F1F700C029989AE19A95F1F775
:1006C00000C0209A0895CF93811188E0C62F68302A
:1006D00008F0C7E0C82BC0930F010E9416038C2FAF
:1006E00080680E942F03CF910C941E0394B19360F5
:1006F00094B995B19C7F95B90C94630360910F01F7
:1007000067700C946303682F677080910F01887085
:100710000C946303CF93DF93C82FD62F0E94160348
:1007200084E40E942F030E941E030E9416038C2F54
:100730008370806C0E942F038D2F0E942F03DF9106
:10074000CF910C941E036A3030F4E62FF0E0EA58A3
:10075000FF4F649101C060E0813031F490910E014F
:100760009078692B60930E010C948A0390910E018E
:10077000882311F0906801C09F7790930E016091DB
:100780000E0181E00C948A03CF93C0E060E08C2FCF
:100790000E948A03CF5FC430C9F7CF9108956FE0FC
:1007A00081E00E9476030E94C40360E081E00E9421
:1007B000A30360E082E00E94A30369E083E00E945B
:1007C000A30381E00E94B6038AB18B6F8AB98AB114
:1007D000876F8AB9C0E0D0E04B9B1AC0CF5FC630AC
:1007E00014F0DF5FC0E06D2F81E00E94A3036C2F47
:1007F00082E00E94A30369E083E00E94A3032FEF3D
:1008000089E698E1215080409040E1F700C0000067
:100810004A9BE2CF2FEF89E698E12150804090403B
:10082000E1F700C000004A9BFECF0E94C403D7FD41
:100830002EC06D2F81E00E94A303C7FD25C06C2F41
:1008400082E00E94A30319E0612F83E00E94A303CA
:1008500080E00E94B6032FEF89E698E121508040A6
:100860009040E1F700C0000081E00E94B6032FEF46
:1008700089E698E1215080409040E1F700C00000F7
:10088000115010F7C150D9CFD150C5E0D0CFCFEF24
:100890004B99A1CF6FE080E00E9476032FEF81EEAD
:1008A00094E0215080409040E1F700C000006FE0EC
:1008B00081E00E9476032FEF81EE94E0215080408A
:1008C0009040E1F700C00000E2CFEE0FFF1F05905F
:0A08D000F491E02D0994F894FFCF95
:1008DA0008040201C0F9A4B0989282F88090FF0F30
:00000001FF
